:1000000071C000008EC000008CC000008AC00000DB
:1000100088C0000086C0000084C0000082C00000CC
:1000200080C000007EC000007CC000007AC00000DC
:1000300078C0000076C0000074C0000072C00000EC
:1000400070C000006EC000006CC000006AC00000FC
:1000500068C0000066C0000064C0000062C000000C
:1000600060C000005EC000005CC000005AC000001C
:1000700058C0000056C0000054C0000052C000002C
:1000800050C000004EC000004CC000004AC000003C
:1000900048C0000046C0000044C0000042C000004C
:1000A00040C000003EC000003CC000003AC000005C
:1000B00038C0000036C0000034C0000032C000006C
:1000C00030C000002EC000002CC000002AC000007C
:1000D00028C0000026C00000AFC4000022C00000FD
:1000E00020C0000011241FBECFEFD1E2DEBFCDBF84
:1000F00000E00CBF12E0A0E0B2E0E0E5F0E100E0DB
:100100000BBF02C007900D92A238B107D9F723E0C8
:10011000A2E8B2E001C01D92AA30B207E1F7BDD15A
:1001200095C76ECFCF93DF93CDB7DEB78AE790E068
:1001300027E8FC0120838CE790E020E6FC01208387
:100140008BE790E0FC0110820000DF91CF910895D1
:10015000CF93DF931F921F92CDB7DEB78A831982A8
:100160008CE790E02CE730E0F9012081322F307EDF
:100170002A81232BFC0120838CE790E02CE730E0E0
:10018000F90120812062FC0120838AE790E02AE7C0
:1001900030E0F90120812064FC01208300008AE71F
:1001A00090E0FC018081882F90E080719927892B55
:1001B000B1F389E790E0FC018081898389810F9008
:1001C0000F90DF91CF910895CF93DF93CDB7DEB736
:1001D00080E990E02BEAFC01208381E990E02CE0AB
:1001E000FC01208388E990E0FC01118210828AE9F9
:1001F00090E0FC01118210828CE990E0FC011182F8
:1002000010820000DF91CF910895CF93DF93CDB797
:10021000DEB789E690E023E0FC0120838DE390E0E7
:1002200021E0FC0120830000DF91CF910895CF935E
:10023000DF93CDB7DEB78AE990E02AE330E0FC0136
:100240003183208388E990E025E530E0FC013183AB
:1002500020838CE990E028E730E0FC0131832083A3
:100260000000DF91CF910895CF93DF931F92CDB718
:10027000DEB7898388E990E02981222F30E0FC01F4
:100280003183208388EE93E009D300000F90DF9143
:10029000CF910895CF93DF931F92CDB7DEB78983B7
:1002A0008CE990E02981222F30E0FC01318320830A
:1002B00088EE93E0F3D200000F90DF91CF91089584
:1002C000CF93DF93CDB7DEB78FE5CEDF84EF91E03C
:1002D000E5D28FE3DFDF84EF91E0E0D285E5C4DF94
:1002E00084EF91E0DBD20000DF91CF910895CF93AE
:1002F000DF93CDB7DEB78FE5B7DF84EF91E0CED2E5
:1003000088E7C8DF84EF91E0C9D285E5ADDF84EFEF
:1003100091E0C4D20000DF91CF910895CF93DF9395
:1003200000D0CDB7DEB79A8389836B8300008FE35B
:1003300090E0FC018081882F90E082709927892BC2
:10034000B1F781E490E029813A81FC013183208377
:1003500080E490E02B81FC0120838FE390E02FE389
:1003600030E0F90120812460FC0120838FE390E0DC
:100370002FE330E0F90120812260FC01208300009E
:100380000F900F900F90DF91CF910895CF93DF934F
:100390001F921F92CDB7DEB79A83898300008FE347
:1003A00090E0FC018081882F90E082709927892B52
:1003B000B1F781E490E029813A81FC013183208307
:1003C0008FE390E02FE330E0F90120812160FC0110
:1003D000208380E490E0FC0180810F900F90DF91FA
:1003E000CF910895CF93DF9300D01F921F92CDB786
:1003F000DEB79B838A837D836C83198219C08981D0
:10040000882F90E02A813B81820F931FFC0180811D
:10041000882311F18981882F90E02C813D81820F02
:10042000931FFC0180818823B9F089818F5F8983C4
:100430008981882F90E02A813B81820F931FFC01E4
:1004400040818981882F90E02C813D81820F931F0C
:10045000FC018081481799F28981882F90E02A81D8
:100460003B81820F931FFC018081882369F489817D
:10047000882F90E02C813D81820F931FFC018081A9
:10048000882311F480E001C081E00F900F900F905D
:100490000F900F90DF91CF9108950F931F93CF93FB
:1004A000DF93CDB7DEB762970FB6F894DEBF0FBE0D
:1004B000CDBF8ADEDAD136DE31D297D2A6DE78948D
:1004C0001092920210929102198281E290E0FC0156
:1004D000108282E290E027E0FC0120838DE290E030
:1004E00028E3FC0120838EE290E028E3FC012083D6
:1004F00081E091E028E0FC01208382E091E028E0A7
:10050000FC01208380E390E0FC01108281E390E015
:10051000FC0110828AE290E0FC0110828BE290E004
:1005200021E0FC01208384E091E0FC01108285E061
:1005300091E02FEFFC012083109292021092910221
:100540008981882309F08FC072DE0AE910E081E01A
:1005500090E01CDF882F90E0F80191838083B0DE6B
:100560008AE990E0FC0180819181292F2F938F935C
:100570008EE092E0892F8F938EE092E08F93A6D247
:100580000F900F900F900F90809191029091920296
:100590009E012D5F3F4F820F931FFC018081882FAA
:1005A00090E0292F2F938F938EE092E0892F8F93E5
:1005B0008EE092E08F938AD20F900F900F900F9061
:1005C0008091910290919202019690939202809371
:1005D00091020AE910E082E090E0D8DE882F90E0F6
:1005E000F8019183808383DE8AE990E0FC018081B9
:1005F0009181292F2F938F938EE092E0892F8F93F3
:100600008EE092E08F9362D20F900F900F900F9038
:1006100057DE8091910290919202019690939202FE
:10062000809391020AE910E083E090E0AFDE882F2A
:1006300090E0F801918380835ADE8AE990E0FC0122
:1006400080819181292F2F938F938EE092E0892FC3
:100650008F938EE092E08F9339D20F900F900F908E
:100660000F9081E089838AE0E7E7F2E0DE011996E6
:1006700001900D928A95E1F7CE010996BC018EEDAD
:1006800092E0B0DE8A838A81882F90E0292F2F9311
:100690008F9382E192E0892F8F9382E192E08F9392
:1006A00015D20F900F900F900F901092920210920F
:1006B0009102109283028A81882309F03DCF86E15E
:1006C00092E0892F8F9386E192E08F93FFD10F9074
:1006D0000F90A7C008E910E080E03ADD882F90E095
:1006E000F801918380830AE910E087E031DD882FEB
:1006F00090E0F801918380830CE910E082E028DD2E
:10070000882F90E0F8019183808388E990E0FC01D4
:1007100080819181809382028AE990E0FC0180814E
:1007200091818093CB028CE990E0FC0180819181E2
:100730008093010380E290E0FC018081882F90E0AB
:1007400081709927892B61F480E290E0FC0180811F
:10075000882F90E084709927892B09F4BBCF01C0C2
:10076000000080E392E0892F8F9380E392E08F93E3
:10077000ADD10F900F908091CB02882F90E0292F60
:100780002F938F9384E492E0892F8F9384E492E0F7
:100790008F939CD10F900F900F900F9080918302B8
:1007A000882F90E04091CB029E012D5F3F4F820F3A
:1007B000931FFC0140838EEE92E070D08091830203
:1007C000882F90E09E012D5F3F4F820F931FFC0109
:1007D0008081882F90E0292F2F938F938BE592E0D3
:1007E000892F8F938BE592E08F9370D10F900F90AC
:1007F0000F900F90809183028F5F80938302CE01D0
:100800000396282F8091910290919202622F86DDAB
:10081000809191029091920201969093920280931E
:10082000910280E290E0FC018081882F90E081704D
:100830009927892B09F488CF80E692E0892F8F933E
:1008400080E692E08F9342D10F900F9081E08A83EF
:1008500080E090E062960FB6F894DEBF0FBECDBF89
:10086000DF91CF911F910F910895CF93DF93CDB773
:10087000DEB786E490E0FC01108284E490E0FC01A5
:10088000108285E490E0FC01108287E490E02AEF7A
:10089000FC0120830000DF91CF910895CF93DF9377
:1008A00000D01F92CDB7DEB79C838B831A8219824A
:1008B00026C085E490E023E0FC012083000085E36E
:1008C00090E0FC018081882F90E082709927892B2D
:1008D000B1F385E490E0FC01108285E390E025E32C
:1008E00030E0F90120812260FC01208386E490E061
:1008F000FC01108289819A8101969A8389832981DA
:100900003A818B819C812817390798F200000F905B
:100910000F900F900F90DF91CF910895CF93DF93B9
:10092000CDB7DEB780EC90E0FC01108281EC90E066
:1009300028E1FC01208382EC90E026E0FC0120838A
:1009400084EC90E027E6FC01208385EC90E0FC013C
:10095000108280E092E0909307038093060380E08A
:1009600092E090930503809304030000DF91CF9100
:100970000895CF93DF9300D0CDB7DEB789837B8313
:100980006A83000080EC90E0FC018081882F90E079
:1009900080729927892BB1F386EC90E02981FC01C4
:1009A000208380E090E00F900F900F90DF91CF9127
:1009B0000895CF93DF9300D0CDB7DEB79B838A83B2
:1009C000000080EC90E0FC0180818823D4F786EC65
:1009D00090E0FC01808189838981882F90E00F90CD
:1009E0000F900F90DF91CF910895CF93DF931F92D7
:1009F0001F92CDB7DEB780E391E0FC01108281E366
:100A000091E028E9FC01208382E391E026E0FC01EB
:100A1000208387E690E09A83898384E391E02981AB
:100A2000FC01208385E391E0FC01108200000F901F
:100A30000F90DF91CF9108951F920F9200905F0069
:100A40000F92112400905B000F922F938F939F932E
:100A5000EF93FF93CF93DF93CDB7DEB786E391E0BB
:100A6000FC01808180930303809103038D3071F436
:100A70008091DD02882F90E082529D4FFC01108210
:100A800081E08093FE021092DD020FC08091DD02B2
:100A9000882F90E02091030382529D4FFC01208318
:100AA0008091DD028F5F8093DD020000DF91CF91A6
:100AB000FF91EF919F918F912F910F9000925B008A
:100AC0000F9000925F000F901F901895CF93DF93C7
:100AD000CDB7DEB7AE014A5F5F4FFA016191719108
:100AE000AF01809106039091070303D0DF91CF916E
:100AF00008952F923F924F925F926F927F928F92C2
:100B00009F92AF92BF92CF92DF92EF92FF920F939C
:100B10001F93CF93DF93CDB7DEB72B970FB6F89423
:100B2000DEBF0FBECDBF6C017B018A01FC011782C5
:100B30001682838181FFBFC1CE0101963C01F6017F
:100B40009381F70193FD859193FF81917F01882324
:100B500009F4ADC1853239F493FD859193FF8191FC
:100B60007F01853221F4B60190E0D6D1E8CF912CF7
:100B7000212C312CFFE1F315D8F08B3279F038F4C9
:100B8000803279F08332A1F4232D20611DC08D3293
:100B900061F0803369F4232D216016C0832D8260BB
:100BA000382EE32DE4603E2E2AC0F32DF8601DC0E0
:100BB00037FC2DC020ED280F2A3040F08E32B9F4DA
:100BC00036FC75C1232D2064322E19C036FE06C0B6
:100BD0008AE0989E200D1124922E11C0EAE02E9EEC
:100BE000200D1124222EF32DF0623F2E08C08C36EA
:100BF00021F4832D8068382E02C0883641F4F70135
:100C000093FD859193FF81917F018111B3CF982F3F
:100C10009F7D9554933028F40C5F1F4F9FE3998379
:100C20000DC0833631F0833771F0833509F055C03C
:100C300020C0F801808189830E5F1F4F8824839430
:100C4000912C530112C02801F2E04F0E511CF80103
:100C5000A080B18036FE03C0692D70E002C06FEF46
:100C60007FEFC5014ED14C018201F32DFF773F2E5E
:100C700015C0280122E0420E511CF801A080B1806D
:100C800036FE03C0692D70E002C06FEF7FEFC50133
:100C90002DD14C01F32DF0683F2E820133FC19C099
:100CA000822D90E088169906A0F4B60180E290E0CB
:100CB00033D12A94F5CFF50137FC859137FE819128
:100CC0005F01B60190E028D121102A9421E0821A18
:100CD00091088114910479F7E1C0843611F08936C6
:100CE00039F5F80137FE07C06081718182819381F7
:100CF0000C5F1F4F08C060817181072E000C880BAC
:100D0000990B0E5F1F4FF32DFF763F2E97FF09C003
:100D100090958095709561957F4F8F4F9F4FF068AC
:100D20003F2E2AE030E0A30133D1882E861844C03C
:100D3000853731F4232D2F7EB22E2AE030E025C0F6
:100D4000932D997FB92E8F36C1F018F4883579F03C
:100D5000AEC0803719F0883721F0A9C0E92FE061D3
:100D6000BE2EB4FE0DC0FB2DF460BF2E09C034FEB4
:100D70000AC0292F2660B22E06C028E030E005C048
:100D800020E130E002C020E132E0F801B7FE07C008
:100D900060817181828193810C5F1F4F06C06081E9
:100DA000718180E090E00E5F1F4FA301F1D0882E8B
:100DB0008618FB2DFF773F2E36FE0DC0232D2E7F8C
:100DC000A22E891458F434FE0BC032FC09C0832DC6
:100DD0008E7EA82E05C0B82CA32C03C0B82C01C051
:100DE000B92CA4FE0FC0FE01E80DF11D80818033F7
:100DF00021F49A2D997EA92E09C0A2FE06C0B394B3
:100E0000B39404C08A2D867809F0B394A3FC10C073
:100E1000A0FE06C0B21480F4280C922C9B180DC0C2
:100E2000B21458F4B60180E290E076D0B394F8CFD3
:100E3000B21418F42B1802C0982C212CA4FE0FC059
:100E4000B60180E390E068D0A2FE16C0A1FC03C00A
:100E500088E790E002C088E590E0B6010CC08A2DDA
:100E6000867851F0A1FE02C08BE201C080E2A7FCAF
:100E70008DE2B60190E050D0891430F4B60180E3E1
:100E800090E04AD09A94F8CF8A94F301E80DF11DCE
:100E90008081B60190E040D08110F6CF222009F485
:100EA0004ECEB60180E290E037D02A94F7CFF6011B
:100EB0008681978102C08FEF9FEF2B960FB6F89433
:100EC000DEBF0FBECDBFDF91CF911F910F91FF907D
:100ED000EF90DF90CF90BF90AF909F908F907F90DA
:100EE0006F905F904F903F902F900895FC01059078
:100EF000615070400110D8F7809590958E0F9F1F1C
:100F00000895FC016150704001900110D8F7809560
:100F100090958E0F9F1F08950F931F93CF93DF938C
:100F2000FB01238121FD03C08FEF9FEF2CC022FF27
:100F300016C046815781248135814217530744F4F6
:100F4000A081B1819D012F5F3F4F318320838C931E
:100F5000268137812F5F3F4F3783268314C08B0153
:100F6000EC01FB010084F185E02D1995892BE1F658
:100F7000D80116968D919C911797019617969C9380
:100F80008E931697CE01DF91CF911F910F91089507
:100F9000FA01AA27283051F1203181F1E8946F93AA
:100FA0006E7F6E5F7F4F8F4F9F4FAF4FB1E03ED050
:100FB000B4E03CD0670F781F891F9A1FA11D680FEE
:100FC000791F8A1F911DA11D6A0F711D811D911D21
:100FD000A11D20D009F468943F912AE0269F112496
:100FE0003019305D3193DEF6CF010895462F4770FA
:100FF000405D4193B3E00FD0C9F7F6CF462F4F7055
:10100000405D4A3318F0495D31FD4052419302D0B2
:10101000A9F7EACFB4E0A695979587957795679558
:10102000BA95C9F700976105710508959B01AC0158
:101030000A2E06945795479537952795BA95C9F77F
:10104000620F731F841F951FA01D0895F894FFCF92
:101050000000000300000000B904D90400000A25C4
:10106000640025750A000A2063616C69627261740C
:10107000696F6E20696E2070726F6772657373009E
:101080000A20706F736974696F6E207265636F7286
:10109000646564000A20486F72697A6F6E74616CCF
:1010A0002076616C75653A202575000A202564005C
:1010B0000A2063616C6962726174696F6E20636F8C
:1010C0006D706C6574650063616C696272617465F2
:0210D00000001E
:00000001FF
